:020000040000FA
:0400000019EF00F004
:020004000000FA
:040008000CEF00F009
:08001800006ED8CF01F0E0CF2B
:1000200002F0006ED8CF01F0E0CF02F0100011EF27
:1000300000F0D38CD38AD3889B8C606A0F01386B15
:10004000396B3A6B38810F01806A816A826A0001DC
:10005000896A8A6A8B6A926A936A946AFF0E926EC0
:100060003E0EC06E0F0EC16E948449914993C70E27
:10007000BB6E0C0EBD6E030EBA6E9E929494BA8443
:10008000036A4BEC00F003C0BEFF03C08AFFCBEC59
:1000900000F041EF00F0030EC26EC2B24DEF00F06F
:1000A000C4CF03F01200030ED56EF294FF0ED76E8C
:1000B000FA0ED66ED58ED5EF00F0070ED56EF294FF
:1000C0000B0ED76EDB0ED66ED58ED5EF00F0070E79
:1000D000D56EF294850ED76EED0ED66ED58ED5EF19
:1000E00000F0040ED56EF2943C0ED76EAF0ED66EB5
:1000F000D58ED5EF00F0040ED56EF2949E0ED76E1D
:10010000570ED66ED58ED5EF00F0040ED56EF29454
:10011000BF0ED76E8B0ED66ED58ED5EF00F0040EC7
:10012000D56EF294E00ED76EBF0ED66ED58ED5EF9B
:1001300000F0040ED56EF294DC0ED76ED70ED66E9C
:10014000D58ED5EF00F0030ED56EF294D80ED76E93
:10015000F00ED66ED58ED5EF00F0000ED56EF2946F
:10016000630ED76E520ED66ED58ED5EF00F0040E0C
:10017000D56EF294FF0ED76E050ED66ED58ED5EFE6
:1001800000F0040ED56EF294FF0ED76E820ED66E7E
:10019000D58ED5EF00F0040ED56EF294FE0ED76E1C
:1001A0000D0ED66ED58ED5EF00F0F2A4D5EF00F08F
:0601B000F294D59E12003E
:020000040030CA
:0100010038C6
:010002001FDE
:010003003CC0
:010005003DBD
:010006008178
:010008000FE8
:01000900C036
:01000A000FE6
:01000B00E014
:01000C000FE4
:01000D0040B2
:00000001FF
