:020000040000FA
:0400000019EF00F004
:020004000000FA
:040008000CEF00F009
:08001800006ED8CF01F0E0CF2B
:1000200002F0006ED8CF01F0E0CF02F0120011EF25
:1000300000F00F01386B396B3A6B0F01806A816AEF
:10004000826A0001896A8A6A8B6A926A936A946AF0
:10005000000E936E43EC00F0810E8B6E810E8A6E63
:10006000080E036EBCEC00F0BCEC00F0BCEC00F041
:10007000BCEC00F0BCEC00F0D8908B428A32032E2E
:1000800032EF00F00300000ED56ED66AD76AF29404
:10009000120099EC00F099EC00F099EC00F099EC6A
:1000A00000F099EC00F099EC00F099EC00F099EC7C
:1000B00000F099EC00F01200046ED584D582D58052
:1000C000F40E056E240E066E8CEF00F0046ED584DF
:1000D000D592D590C30E056E500E066E8CEF00F0D3
:1000E000046ED594D592D5809C0E056E400E066E9A
:1000F0008CEF00F0046ED594D592D5800F0E056E6E
:10010000A00E066E8CEF00F0046ED594D592D580CB
:10011000010E056E900E066E051CD76E061CD66E7F
:10012000D58EF2A491EF00F0F294042E8CEF00F043
:1001300012000A0E7AEC00F01200050E7AEC00F0C4
:100140001200010E7AEC00F01200640E7AEC00F05E
:100150001200A5EC00F0A5EC00F0A5EC00F0A5EC79
:1001600000F099EC00F099EC00F099EC00F099ECBB
:1001700000F099EC00F01200010E5CEC00F01200AF
:020000040030CA
:0100010033CB
:010002001FDE
:010003003CC0
:010005003DBD
:010006008178
:010008000FE8
:01000900C036
:01000A000FE6
:01000B00E014
:01000C000FE4
:01000D0040B2
:00000001FF
