:020000040000FA
:0400000019EF00F004
:020004000000FA
:040008000CEF00F009
:08001800006ED8CF01F0E0CF2B
:1000200002F0006ED8CF01F0E0CF02F0120011EF25
:1000300000F00F01386B396B3A6B806A816A826A13
:100040000001896A8A6A8B6A926A936A946A060EC8
:10005000B06E820EAF6E948C948E240EAC6E900EA9
:10006000AB6E080EB86E9E9A62EC00F0AE50ABB26A
:1000700036EF00F0AE503108D8A442EF00F08A808D
:1000800036EF00F0AE503208D8A44AEF00F08A8272
:1000900036EF00F0AE505A08D8A436EF00F08A6A66
:1000A0004F0E5CEC00F0460E5CEC00F0460E5CEC93
:1000B00000F0AE6A36EF00F0AD6E9EA85DEF00F086
:1000C0009E981200000ED56ED66AD76AF29412007E
:1000D000B8EC00F0B8EC00F0B8EC00F0B8EC00F0D0
:1000E000B8EC00F0B8EC00F0B8EC00F0B8EC00F0C0
:1000F000B8EC00F01200036ED584D582D580F40EE2
:10010000046E240E056EABEF00F0036ED584D5921D
:10011000D590C30E046E500E056EABEF00F0036E6B
:10012000D594D592D5809C0E046E400E056EABEF33
:1001300000F0036ED594D592D5800F0E046EA00EFC
:10014000056EABEF00F0036ED594D592D580010E0D
:10015000046E900E056E041CD76E051CD66ED58EEF
:10016000F2A4B0EF00F0F294032EABEF00F0120017
:100170000A0E99EC00F01200050E99EC00F0120046
:10018000010E99EC00F01200640E99EC00F01200E0
:10019000C4EC00F0C4EC00F0C4EC00F0C4EC00F0DF
:1001A000B8EC00F0B8EC00F0B8EC00F0B8EC00F0FF
:0E01B000B8EC00F01200010E7BEC00F0120023
:020000040030CA
:0100010033CB
:010002001FDE
:010003003CC0
:010005003DBD
:010006008178
:010008000FE8
:01000900C036
:01000A000FE6
:01000B00E014
:01000C000FE4
:01000D0040B2
:00000001FF
