:020000040000FA
:0400000019EF00F004
:020004000000FA
:040008000CEF00F009
:08001800006ED8CF01F0E0CF2B
:1000200002F0006ED8CF01F0E0CF02F0120011EF25
:1000300000F00F01386B396B3A6B0F01806A816AEF
:10004000826A0001896A8A6A8B6A926A936A946AF0
:10005000CFEC00F0320EC66E94888AEC01F08B9ED5
:1000600031EC01F0BFEC01F0A8EC00F05DEC00F029
:1000700004C089FF045069EC01F0C1EC01F00F509D
:1000800025EC02F0105025EC02F0115025EC02F0A6
:1000900031EC01F036EF00F0040E6AEC00F048ECB1
:1000A00001F0000E74EC00F048EC01F0010E7EEC63
:1000B00000F048EC01F036EF00F08B8E810E88ECFA
:1000C00000F0948A000E88EC00F0C9CF04F08B9EFB
:1000D000949A1200046E8B8E800E88EC00F004500F
:1000E00088EC00F08B9E1200046E8B8E820E88ECE2
:1000F00000F0045088EC00F08B9E1200046E8B8E92
:10010000840E88EC00F0045088EC00F08B9E120006
:10011000066E079006BE0780079206BC078207940A
:1001200006BA0784079606B80786079806B60788B2
:10013000079A06B4078A079C06B2078C079E06B08A
:10014000078E0750C96E9EA6A3EF00F09E96120080
:10015000000EF86E010EF76E720EF66EB0EF00F044
:100160000900F550D8A401D01200F55025EC02F09A
:10017000F7D7484F4C41204D4943524F5445434EC9
:100180004F4C4F47494100002D2D484F4C41204DC9
:10019000554E444F205441424C41532D0000000E17
:1001A000D56ED66AD76AF294120025EC01F025ECE0
:1001B00001F025EC01F025EC01F025EC01F025EC37
:1001C00001F025EC01F025EC01F025EC01F0120026
:1001D000086ED584D582D580F40E096E240E0A6E81
:1001E00018EF01F0086ED584D592D590C30E096E34
:1001F000500E0A6E18EF01F0086ED594D592D58096
:100200009C0E096E400E0A6E18EF01F0086ED59430
:10021000D592D5800F0E096EA00E0A6E18EF01F070
:10022000086ED594D592D580010E096E900E0A6E97
:10023000091CD76E0A1CD66ED58EF2A41DEF01F0F4
:10024000F294082E18EF01F012000A0E06EC01F0ED
:100250001200050E06EC01F01200010E06EC01F092
:100260001200640E06EC01F0120031EC01F031ECEA
:1002700001F031EC01F031EC01F025EC01F025EC5E
:1002800001F025EC01F025EC01F025EC01F0120065
:10029000010EE8EC00F01200126E0F6A106A116A8B
:1002A000640E125CD8B057EF01F05BEF01F0126EF4
:1002B000112A50EF01F00A0E125CD8B062EF01F083
:1002C00066EF01F0126E102A5BEF01F012500F6E14
:1002D0001200126E0F6A106A116A640E125CD8B0B6
:1002E00074EF01F078EF01F0126E112A6DEF01F05A
:1002F0000A0E125CD8B07FEF01F083EF01F0126EAE
:10030000102A78EF01F012500F6E300E0F261026D3
:10031000112612008A968A9425EC01F0300EADEC7D
:1003200001F029EC01F02DEC01F0300EADEC01F004
:1003300010EC01F0300EADEC01F010EC01F0200EED
:10034000ADEC01F010EC01F01FEC02F01DEC02F03E
:100350001BEC02F0B7EC01F01200F00B0B6E8A50B0
:100360000F0B0B120B508A6E8A868A961200060EAD
:1003700067D0C80E65D0810E63D0C10E61D0800EEB
:100380005FD0C00E5DD0940E5BD0950E59D0960E06
:1003900057D0970E55D0980E53D0990E51D09A0E33
:1003A0004FD09B0E4DD09C0E4BD09D0E49D09E0E33
:1003B00047D09F0E45D0A00E43D0A10E41D0A20E33
:1003C0003FD0A30E3DD0A40E3BD0A50E39D0A60E33
:1003D00037D0A70E35D0D40E33D0D50E31D0D60EAF
:1003E0002FD0D70E2DD0D80E2BD0D90E29D0DA0E83
:1003F00027D0DB0E25D0DC0E23D0DD0E21D0DE0E83
:100400001FD0DF0E1DD0E00E1BD0E10E19D0E20E82
:1004100017D0E30E15D0E40E13D0E50E11D0E60E82
:100420000FD0E70E0DD080090BD0C00909D0080EFF
:1004300007D00E0E05D00C0E03D0010E01D0280EF1
:100440008A9406D0FDD70F0EFBD78A8434EC02F0D5
:100450000C6EADEC01F00C38ADEC01F08AA42DEC83
:1004600001F02DEC01F012000B6EF108D8A43DEF65
:1004700002F0EE0E0B6E4DEF02F00B50D108D8A437
:1004800046EF02F0EE0E0B6E4DEF02F00B50BA0885
:10049000D8A44DEF02F0DF0E0B6E0B501200BFEC34
:1004A00001F063EC02F01200C1EC01F063EC02F029
:1004B0001200C3EC01F063EC02F01200EBEC01F06F
:1004C00063EC02F01200140E0D6E200E25EC02F00B
:1004D0000D2E65EF02F012000E6EF00BD8A477EF30
:1004E00002F0200E05EC00F07AEF02F00E6E0E38EE
:1004F0007BEC02F00E500F0B0D6E0908D8A085EFB3
:1005000002F00D50300F87EF02F00D50370F05EF5E
:0205100000F0F9
:020000040030CA
:0100010033CB
:010002001FDE
:010003003CC0
:010005003DBD
:010006008178
:010008000FE8
:01000900C036
:01000A000FE6
:01000B00E014
:01000C000FE4
:01000D0040B2
:00000001FF
