:020000040000FA
:040000001FEF00F0FE
:020004000000FA
:040008000CEF00F009
:08001800006ED8CF01F0E0CF2B
:1000200002F0F2A217EF00F0F29241EF00F0006E42
:10003000D8CF01F0E0CF02F0100017EF00F0D38C22
:10004000D38AD3889B8C606A0F01386B396B3A6B0B
:100050000F01806A816A826A0001896A8A6A8B6AF2
:10006000926A936A9380946AF288F292F28E7BECA1
:1000700000F0046A056A0A0E066E54EC00F03DEFCB
:1000800000F0042A04500A08D8A417EF00F0046A0C
:10009000052A05500A08D8A417EF00F0090E056ECE
:1000A000090E046E17EF00F08A8E8A9C04506AECE9
:1000B00000F08B6ED5EC00F08A8C8A9E05506AECBD
:1000C00000F08B6ED5EC00F0062E54EF00F0190E08
:1000D000066E1200036E000EF86E000EF76EEC0E48
:1000E000F66E0350F6260800F55012003F065B4FEF
:1000F000666D7D077F67000ED56ED66AD76AF2946B
:100100001200D5EC00F0D5EC00F0D5EC00F0D5EC09
:1001100000F0D5EC00F0D5EC00F0D5EC00F0D5EC1B
:1001200000F0D5EC00F01200076ED584D582D580A2
:10013000F40E086E240E096EC4EF00F0076ED5842D
:10014000D592D590C30E086E500E096EC4EF00F024
:10015000076ED594D592D5809C0E086E400E096E20
:10016000C4EF00F0076ED594D592D5800F0E086EBF
:10017000A00E096EC4EF00F0076ED594D592D5801D
:10018000010E086E900E096E081CD76E091CD66E03
:10019000D58EF2A4C9EF00F0F294072EC4EF00F060
:1001A0001200040EB2EC00F012000A0EB2EC00F0E5
:1001B0001200050EB2EC00F01200010EB2EC00F0DD
:1001C0001200640EB2EC00F01200E1EC00F0E1EC81
:1001D00000F0E1EC00F0E1EC00F0D5EC00F0D5EC43
:1001E00000F0D5EC00F0D5EC00F0D5EC00F01200FA
:0801F000010E94EC00F0120076
:020000040030CA
:0100010038C6
:010002001FDE
:010003003CC0
:010005003DBD
:010006008178
:010008000FE8
:01000900C036
:01000A000FE6
:01000B00E014
:01000C000FE4
:01000D0040B2
:00000001FF
