:020000040000FA
:0400000019EF00F004
:020004000000FA
:040008000CEF00F009
:08001800006ED8CF01F0E0CF2B
:1000200002F0006ED8CF01F0E0CF02F0120011EF25
:1000300000F0D38CD38AD3889B8C606A0F01386B15
:10004000396B3A6B0F01806A816A826A0001896AA2
:100050008A6A8B6A926A936A946AFF0E926E1FECA8
:1000600004F0B2EC04F047EC02F086EC02F0C5ECD0
:1000700002F004EC03F0066A80A0FDEF01F080A21C
:10008000F0EF01F080A449EF00F009EC02F03CEF42
:1000900000F080A449EF00F006500008D8A459EF02
:1000A00000F073EC00F059EC03F059EC03F031EF81
:1000B00000F006500108D8A466EF00F0F2EC00F062
:1000C00059EC03F059EC03F031EF00F00650020850
:1000D000D8A43CEF00F071EC01F059EC03F059ECBE
:1000E00003F031EF00F0B2EC04F054EC04F0200E19
:1000F000BAEC04F0200EBAEC04F0200EBAEC04F0D6
:10010000480EBAEC04F0410EBAEC04F0530EBAEC0F
:1001100004F0200EBAEC04F0450EBAEC04F04C0EDC
:10012000BAEC04F0450EBAEC04F0470EBAEC04F059
:10013000490EBAEC04F0440EBAEC04F04F0EBAECDF
:1001400004F0200EBAEC04F0200EBAEC04F0200EFD
:10015000BAEC04F0200EBAEC04F0200EBAEC04F075
:10016000200EBAEC04F058EC04F0200EBAEC04F0C7
:10017000200EBAEC04F0200EBAEC04F0200EBAEC1B
:1001800004F04C0EBAEC04F0410EBAEC04F0200E70
:10019000BAEC04F04F0EBAEC04F0500EBAEC04F0D6
:1001A000430EBAEC04F0490EBAEC04F04F0EBAEC70
:1001B00004F04E0EBAEC04F0200EBAEC04F0230E5C
:1001C000BAEC04F0310EBAEC04F0200EBAEC04F0F4
:1001D000200EBAEC04F0200EBAEC04F0200EBAECBB
:1001E00004F01200B2EC04F054EC04F0200EBAEC6F
:1001F00004F0200EBAEC04F0200EBAEC04F0480E25
:10020000BAEC04F0410EBAEC04F0530EBAEC04F070
:10021000200EBAEC04F0450EBAEC04F04C0EBAEC29
:1002200004F0450EBAEC04F0470EBAEC04F0490EA7
:10023000BAEC04F0440EBAEC04F04F0EBAEC04F041
:10024000200EBAEC04F0200EBAEC04F0200EBAEC4A
:1002500004F0200EBAEC04F0200EBAEC04F0200EEC
:10026000BAEC04F058EC04F0200EBAEC04F0200EC6
:10027000BAEC04F0200EBAEC04F0200EBAEC04F054
:100280004C0EBAEC04F0410EBAEC04F0200EBAECBD
:1002900004F04F0EBAEC04F0500EBAEC04F0430E2A
:1002A000BAEC04F0490EBAEC04F04F0EBAEC04F0CC
:1002B0004E0EBAEC04F0200EBAEC04F0230EBAECA9
:1002C00004F0320EBAEC04F0200EBAEC04F0200E6A
:1002D000BAEC04F0200EBAEC04F0200EBAEC04F0F4
:1002E0001200B2EC04F054EC04F0200EBAEC04F06E
:1002F000200EBAEC04F0200EBAEC04F0480EBAEC72
:1003000004F0410EBAEC04F0530EBAEC04F0200EE7
:10031000BAEC04F0450EBAEC04F04C0EBAEC04F062
:10032000450EBAEC04F0470EBAEC04F0490EBAECF4
:1003300004F0440EBAEC04F04F0EBAEC04F0200EB8
:10034000BAEC04F0200EBAEC04F0200EBAEC04F083
:10035000200EBAEC04F0200EBAEC04F0200EBAEC39
:1003600004F058EC04F0200EBAEC04F0200EBAECC5
:1003700004F0200EBAEC04F0200EBAEC04F04C0E9F
:10038000BAEC04F0410EBAEC04F0200EBAEC04F022
:100390004F0EBAEC04F0500EBAEC04F0430EBAEC77
:1003A00004F0490EBAEC04F04F0EBAEC04F04E0E15
:1003B000BAEC04F0200EBAEC04F0230EBAEC04F010
:1003C000330EBAEC04F0200EBAEC04F0200EBAECB6
:1003D00004F0200EBAEC04F0200EBAEC04F0120087
:1003E00080A2F0EF01F006060650FF08D8A43CEF0B
:1003F00000F0020E066E3CEF00F080A0FDEF01F071
:10040000062A06500308D8A43CEF00F0066A3CEF29
:1004100000F006500008D8A41EEF02F056EC04F0DD
:100420007E0EBAEC04F058EC04F0200EBAEC04F0A6
:1004300080EC04F0200EBAEC04F012000650010823
:10044000D8A433EF02F058EC04F07E0EBAEC04F0BE
:1004500056EC04F0200EBAEC04F080EC04F0200E10
:10046000BAEC04F0120006500208D8A4120080EC86
:1004700004F07E0EBAEC04F058EC04F0200EBAEC56
:1004800004F056EC04F0200EBAEC04F0120054EC28
:1004900004F0200EBAEC04F0200EBAEC04F0200EAA
:1004A000BAEC04F04D0EBAEC04F0450EBAEC04F0D0
:1004B0004E0EBAEC04F0550EBAEC04F0200EBAEC75
:1004C00004F0450EBAEC04F0530EBAEC04F0540EEE
:1004D000BAEC04F0410EBAEC04F0440EBAEC04F0AD
:1004E0004F0EBAEC04F0530EBAEC04F0200EBAEC46
:1004F00004F0200EBAEC04F0200EBAEC04F0200E4A
:10050000BAEC04F0200EBAEC04F0120056EC04F041
:10051000200EBAEC04F04F0EBAEC04F0700EBAECF8
:1005200004F0630EBAEC04F0690EBAEC04F06F0E3E
:10053000BAEC04F06E0EBAEC04F0200EBAEC04F043
:10054000230EBAEC04F0310EBAEC04F0200EBAEC33
:1005500004F0200EBAEC04F0200EBAEC04F0200EE9
:10056000BAEC04F0200EBAEC04F0200EBAEC04F061
:10057000200EBAEC04F0200EBAEC04F0200EBAEC17
:1005800004F0200EBAEC04F0120058EC04F0200E37
:10059000BAEC04F04F0EBAEC04F0700EBAEC04F0B2
:1005A000630EBAEC04F0690EBAEC04F06F0EBAEC0C
:1005B00004F06E0EBAEC04F0200EBAEC04F0230E38
:1005C000BAEC04F0320EBAEC04F0200EBAEC04F0EF
:1005D000200EBAEC04F0200EBAEC04F0200EBAECB7
:1005E00004F0200EBAEC04F0200EBAEC04F0200E59
:1005F000BAEC04F0200EBAEC04F0200EBAEC04F0D1
:10060000200EBAEC04F0120080EC04F0200EBAECDC
:1006100004F04F0EBAEC04F0700EBAEC04F0630E66
:10062000BAEC04F0690EBAEC04F06F0EBAEC04F008
:100630006E0EBAEC04F0200EBAEC04F0230EBAEC05
:1006400004F0330EBAEC04F0200EBAEC04F0200EE5
:10065000BAEC04F0200EBAEC04F0200EBAEC04F070
:10066000200EBAEC04F0200EBAEC04F0200EBAEC26
:1006700004F0200EBAEC04F0200EBAEC04F0200EC8
:10068000BAEC04F01200FEEC03F00E50BAEC04F0E9
:100690000D50BAEC04F00C50BAEC04F01200030E4A
:1006A000D56EF294FF0ED76EFA0ED66ED58EDBEFB6
:1006B00003F0070ED56EF2940B0ED76EDB0ED66EDE
:1006C000D58EDBEF03F0070ED56EF294850ED76E54
:1006D000ED0ED66ED58EDBEF03F0040ED56EF294E0
:1006E0003C0ED76EAF0ED66ED58EDBEF03F0040E48
:1006F000D56EF2949E0ED76E570ED66ED58EDBEF6A
:1007000003F0040ED56EF294BF0ED76E8B0ED66E2C
:10071000D58EDBEF03F0040ED56EF294E00ED76EAB
:10072000BF0ED66ED58EDBEF03F0040ED56EF294BD
:10073000DC0ED76ED70ED66ED58EDBEF03F0030E30
:10074000D56EF294D80ED76EF00ED66ED58EDBEF46
:1007500003F0000ED56EF294630ED76E520ED66E75
:10076000D58EDBEF03F0040ED56EF294FF0ED76E3C
:10077000050ED66ED58EDBEF03F0040ED56EF29427
:10078000FF0ED76E820ED66ED58EDBEF03F0040E11
:10079000D56EF294FF0ED76EC20ED66ED58EDBEFFD
:1007A00003F0040ED56EF294FE0ED76E0D0ED66ECB
:1007B000D58EDBEF03F0F2A4DBEF03F0F294D59ECD
:1007C00012000F6E0C6A0D6A0E6A640E0F5CD8B0D0
:1007D000ECEF03F0F0EF03F00F6E0E2AE5EF03F0FD
:1007E0000A0E0F5CD8B0F7EF03F0FBEF03F00F6ECB
:1007F0000D2AF0EF03F00F500C6E12000F6E0C6A12
:100800000D6A0E6A640E0F5CD8B009EF04F00DEFAC
:1008100004F00F6E0E2A02EF04F00A0E0F5CD8B03F
:1008200014EF04F018EF04F00F6E0D2A0DEF04F032
:100830000F500C6E300E0C260D260E2612008B96D5
:100840008B949FEC03F0300E42EC04F0A9EC03F023
:10085000D1EC03F0300E42EC04F0C7EC03F0300EA4
:1008600042EC04F0C7EC03F0200E42EC04F0C7ECBD
:1008700003F0B4EC04F0B2EC04F0B0EC04F04CEC97
:1008800004F01200F00B086E8B500F0B081208508A
:100890008B6E8B868B961200060E67D0C80E65D0C5
:1008A000810E63D0C10E61D0800E5FD0C00E5DD0CE
:1008B000940E5BD0950E59D0960E57D0970E55D00A
:1008C000980E53D0990E51D09A0E4FD09B0E4DD00A
:1008D0009C0E4BD09D0E49D09E0E47D09F0E45D00A
:1008E000A00E43D0A10E41D0A20E3FD0A30E3DD00A
:1008F000A40E3BD0A50E39D0A60E37D0A70E35D00A
:10090000D40E33D0D50E31D0D60E2FD0D70E2DD059
:10091000D80E2BD0D90E29D0DA0E27D0DB0E25D059
:10092000DC0E23D0DD0E21D0DE0E1FD0DF0E1DD059
:10093000E00E1BD0E10E19D0E20E17D0E30E15D059
:10094000E40E13D0E50E11D0E60E0FD0E70E0DD059
:1009500080090BD0C00909D0080E07D00E0E05D0B3
:100960000C0E03D0010E01D0280E8B9406D0FDD7BB
:100970000F0EFBD78B84C9EC04F0096E42EC04F037
:10098000093842EC04F08BA4D1EC03F0D1EC03F075
:100990001200086EF108D8A4D2EF04F0EE0E086E33
:1009A000E2EF04F00850D108D8A4DBEF04F0EE0E1B
:1009B000086EE2EF04F00850BA08D8A4E2EF04F0A1
:1009C000DF0E086E0850120054EC04F0F8EC04F04E
:1009D000120056EC04F0F8EC04F0120058EC04F0AD
:1009E000F8EC04F0120080EC04F0F8EC04F01200D3
:1009F000140E0A6E200EBAEC04F00A2EFAEF04F080
:100A000012000B6EF00BD8A40CEF05F0200E04ECD6
:100A100000F00FEF05F00B6E0B3810EC05F00B50EB
:100A20000F0B0A6E0908D8A01AEF05F00A50300F14
:0C0A30001CEF05F00A50370F04EF00F037
:020000040030CA
:0100010038C6
:010002001FDE
:010003003CC0
:010005003DBD
:010006008178
:010008000FE8
:01000900C036
:01000A000FE6
:01000B00E014
:01000C000FE4
:01000D0040B2
:00000001FF
