:020000040000FA
:0400000019EF00F004
:020004000000FA
:040008000CEF00F009
:08001800006ED8CF01F0E0CF2B
:1000200002F0006ED8CF01F0E0CF02F0120011EF25
:1000300000F0D38CD38AD3889B8C606A0F01386B15
:10004000396B3A6B0F01806A816A826A0001896AA2
:100050008A6A8B6A92689368946A34EC00F08050E4
:1000600081188B6E2FEF00F0000ED56ED66AD76A1E
:10007000F29412008EEC00F08EEC00F08EEC00F0AA
:100080008EEC00F08EEC00F08EEC00F08EEC00F0C8
:100090008EEC00F08EEC00F01200046ED584D58258
:1000A000D580F40E056E240E066E7DEF00F0046E12
:1000B000D584D592D590C30E056E500E066E7DEF99
:1000C00000F0046ED594D592D5809C0E056E400E3E
:1000D000066E7DEF00F0046ED594D592D5800F0E9C
:1000E000056EA00E066E7DEF00F0046ED594D592DD
:1000F000D580010E056E900E066E051CD76E061C8F
:10010000D66ED58EF2A482EF00F0F294042E7DEF2D
:1001100000F01200040E6BEC00F012000A0E6BEC03
:1001200000F01200050E6BEC00F01200010E6BECFB
:1001300000F01200640E6BEC00F012009AEC00F07C
:100140009AEC00F09AEC00F09AEC00F08EEC00F0E3
:100150008EEC00F08EEC00F08EEC00F08EEC00F0F7
:0A0160001200010E4DEC00F0120039
:020000040030CA
:0100010038C6
:010002001FDE
:010003003CC0
:010005003DBD
:010006008178
:010008000FE8
:01000900C036
:01000A000FE6
:01000B00E014
:01000C000FE4
:01000D0040B2
:00000001FF
