:020000040000FA
:0400000019EF00F004
:020004000000FA
:040008000CEF00F009
:08001800006ED8CF01F0E0CF2B
:1000200002F0006ED8CF01F0E0CF02F0120011EF25
:1000300000F0D38CD38AD3889B8C606A0F01386B15
:10004000396B3A6B0F01806A816A826A0001896AA2
:100050008A6A8B6A926A936A946A81EC00F0046AF5
:10006000056A0A0E066E5AEC00F0042A04500A08CB
:10007000D8A433EF00F0046A052A05500A08D8A472
:1000800033EF00F0090E056E090E046E5AEC00F015
:1000900004060450FF08D8A446EF00F0090E046ED1
:1000A00005060550FF08D8A446EF00F0056A046A6B
:1000B00033EF00F08A808A92045070EC00F08B6E6F
:1000C000DBEC00F08A828A90055070EC00F08B6EB9
:1000D000DBEC00F0062E5AEF00F0190E066E12004F
:1000E000036E000EF86E000EF76EF80EF66E0350FB
:1000F000F6260800F55012003F065B4F666D7D073F
:100100007F67000ED56ED66AD76AF2941200DBECD8
:1001100000F0DBEC00F0DBEC00F0DBEC00F0DBEC03
:1001200000F0DBEC00F0DBEC00F0DBEC00F0DBECF3
:1001300000F01200076ED584D582D580F40E086ECB
:10014000240E096ECAEF00F0076ED584D592D590C3
:10015000C30E086E500E096ECAEF00F0076ED594FC
:10016000D592D5809C0E086E400E096ECAEF00F045
:10017000076ED594D592D5800F0E086EA00E096E2D
:10018000CAEF00F0076ED594D592D580010E086EA7
:10019000900E096E081CD76E091CD66ED58EF2A47F
:1001A000CFEF00F0F294072ECAEF00F01200040E19
:1001B000B8EC00F012000A0EB8EC00F01200050EC8
:1001C000B8EC00F01200010EB8EC00F01200640E62
:1001D000B8EC00F01200E7EC00F0E7EC00F0E7EC20
:1001E00000F0E7EC00F0DBEC00F0DBEC00F0DBEC27
:1001F00000F0DBEC00F0DBEC00F01200010E9AECFA
:0402000000F01200F8
:020000040030CA
:0100010038C6
:010002001FDE
:010003003CC0
:010005003DBD
:010006008178
:010008000FE8
:01000900C036
:01000A000FE6
:01000B00E014
:01000C000FE4
:01000D0040B2
:00000001FF
