:020000040000FA
:0400000019EF00F004
:020004000000FA
:040008000CEF00F009
:08001800006ED8CF01F0E0CF2B
:1000200002F0006ED8CF01F0E0CF02F0120011EF25
:1000300000F00F01386B396B3A6B0F01806A816AEF
:10004000826A0001896A8A6A8B6A926A936A946AF0
:1000500054EC00F03F0E8B6EBAEC00F0060E8B6E87
:10006000BAEC00F05B0E8B6EBAEC00F04F0E8B6EAC
:10007000BAEC00F0660E8B6EBAEC00F06D0E8B6E73
:10008000BAEC00F07D0E8B6EBAEC00F0070E8B6EB2
:10009000BAEC00F07F0E8B6EBAEC00F0670E8B6E40
:1000A000BAEC00F02AEF00F0000ED56ED66AD76ADF
:1000B000F2941200AAEC00F0AAEC00F0AAEC00F016
:1000C000AAEC00F0AAEC00F0AAEC00F0AAEC00F018
:1000D000AAEC00F0AAEC00F01200046ED584D582E0
:1000E000D580F40E056E240E066E9DEF00F0046EB2
:1000F000D584D592D590C30E056E500E066E9DEF39
:1001000000F0046ED594D592D5809C0E056E400EFD
:10011000066E9DEF00F0046ED594D592D5800F0E3B
:10012000056EA00E066E9DEF00F0046ED594D5927C
:10013000D580010E056E900E066E051CD76E061C4E
:10014000D66ED58EF2A4A2EF00F0F294042E9DEFAD
:1001500000F012000A0E8BEC00F01200050E8BEC82
:1001600000F01200010E8BEC00F01200640E8BEC1C
:1001700000F01200B6EC00F0B6EC00F0B6EC00F0C7
:10018000B6EC00F0AAEC00F0AAEC00F0AAEC00F04B
:10019000AAEC00F0AAEC00F01200010E6DEC00F0E9
:0201A00012004B
:020000040030CA
:0100010033CB
:010002001FDE
:010003003CC0
:010005003DBD
:010006008178
:010008000FE8
:01000900C036
:01000A000FE6
:01000B00E014
:01000C000FE4
:01000D0040B2
:00000001FF
