:020000040000FA
:0400000019EF00F004
:020004000000FA
:040008000CEF00F009
:08001800006ED8CF01F0E0CF2B
:1000200002F0006ED8CF01F0E0CF02F0120011EF25
:1000300000F0D38CD38AD3889B8C606A0F01386B15
:10004000396B3A6B0F01806A816A826A0001896AA2
:100050008A6A8B6A926A936A946AFF0E926ECFECF8
:1000600001F0036A056AFF0E046EFF53066E62EC30
:1000700002F04BEC00F078EC00F0A5EC00F0D2ECD4
:1000800000F009EC01F0032A052A052A04060606F9
:10009000060639EF00F004EC02F0200E6AEC02F0E4
:1000A000560E6AEC02F0410E6AEC02F04C0E6AEC5D
:1000B00002F04F0E6AEC02F0520E6AEC02F0200ED3
:1000C0006AEC02F0310E6AEC02F03D0E6AEC02F0CE
:1000D000200E6AEC02F00350AEEC01F00E506AEC18
:1000E00002F00D506AEC02F00C506AEC02F01200C3
:1000F00006EC02F0200E6AEC02F0560E6AEC02F0FA
:10010000410E6AEC02F04C0E6AEC02F04F0E6AEC03
:1001100002F0520E6AEC02F0200E6AEC02F0320E8F
:100120006AEC02F03D0E6AEC02F0200E6AEC02F07E
:100130000450AEEC01F00E506AEC02F00D506AEC87
:1001400002F00C506AEC02F0120008EC02F0200EF3
:100150006AEC02F0560E6AEC02F0410E6AEC02F014
:100160004C0E6AEC02F04F0E6AEC02F0520E6AEC92
:1001700002F0200E6AEC02F0330E6AEC02F03D0E43
:100180006AEC02F0200E6AEC02F00550AEEC01F0D1
:100190000E506AEC02F00D506AEC02F00C506AEC62
:1001A00002F0120030EC02F0200E6AEC02F0560E63
:1001B0006AEC02F0410E6AEC02F04C0E6AEC02F0BE
:1001C0004F0E6AEC02F0520E6AEC02F0200E6AEC5E
:1001D00002F0340E6AEC02F03D0E6AEC02F0200EE2
:1001E0006AEC02F00650AEEC01F00E506AEC02F040
:1001F0000D506AEC02F00C506AEC02F01200030E93
:10020000D56EF294FF0ED76EFA0ED66ED58E8BEFAA
:1002100001F0070ED56EF2940B0ED76EDB0ED66E84
:10022000D58E8BEF01F0070ED56EF294850ED76E4A
:10023000ED0ED66ED58E8BEF01F0040ED56EF294D6
:100240003C0ED76EAF0ED66ED58E8BEF01F0040E3E
:10025000D56EF2949E0ED76E570ED66ED58E8BEF5E
:1002600001F0040ED56EF294BF0ED76E8B0ED66ED3
:10027000D58E8BEF01F0040ED56EF294E00ED76EA2
:10028000BF0ED66ED58E8BEF01F0040ED56EF294B4
:10029000DC0ED76ED70ED66ED58E8BEF01F0030E27
:1002A000D56EF294D80ED76EF00ED66ED58E8BEF3B
:1002B00001F0000ED56EF294630ED76E520ED66E1C
:1002C000D58E8BEF01F0040ED56EF294FF0ED76E33
:1002D000050ED66ED58E8BEF01F0040ED56EF2941E
:1002E000FF0ED76E820ED66ED58E8BEF01F0040E08
:1002F000D56EF294FF0ED76EC20ED66ED58E8BEFF2
:1003000001F0040ED56EF294FE0ED76E0D0ED66E71
:10031000D58E8BEF01F0F2A48BEF01F0F294D59E15
:1003200012000F6E0C6A0D6A0E6A640E0F5CD8B074
:100330009CEF01F0A0EF01F00F6E0E2A95EF01F097
:100340000A0E0F5CD8B0A7EF01F0ABEF01F00F6E13
:100350000D2AA0EF01F00F500C6E12000F6E0C6A08
:100360000D6A0E6A640E0F5CD8B0B9EF01F0BDEFF4
:1003700001F00F6E0E2AB2EF01F00A0E0F5CD8B03A
:10038000C4EF01F0C8EF01F00F6E0D2ABDEF01F0D0
:100390000F500C6E300E0C260D260E2612008B967A
:1003A0008B944FEC01F0300EF2EC01F059EC01F0BF
:1003B00081EC01F0300EF2EC01F077EC01F0300E40
:1003C000F2EC01F077EC01F0200EF2EC01F077ECAA
:1003D00001F064EC02F062EC02F060EC02F0FCEC84
:1003E00001F01200F00B086E8B500F0B0812085032
:1003F0008B6E8B868B961200060E67D0C80E65D06A
:10040000810E63D0C10E61D0800E5FD0C00E5DD072
:10041000940E5BD0950E59D0960E57D0970E55D0AE
:10042000980E53D0990E51D09A0E4FD09B0E4DD0AE
:100430009C0E4BD09D0E49D09E0E47D09F0E45D0AE
:10044000A00E43D0A10E41D0A20E3FD0A30E3DD0AE
:10045000A40E3BD0A50E39D0A60E37D0A70E35D0AE
:10046000D40E33D0D50E31D0D60E2FD0D70E2DD0FE
:10047000D80E2BD0D90E29D0DA0E27D0DB0E25D0FE
:10048000DC0E23D0DD0E21D0DE0E1FD0DF0E1DD0FE
:10049000E00E1BD0E10E19D0E20E17D0E30E15D0FE
:1004A000E40E13D0E50E11D0E60E0FD0E70E0DD0FE
:1004B00080090BD0C00909D0080E07D00E0E05D058
:1004C0000C0E03D0010E01D0280E8B9406D0FDD760
:1004D0000F0EFBD78B8479EC02F0096EF2EC01F081
:1004E0000938F2EC01F08BA481EC01F081EC01F011
:1004F0001200086EF108D8A482EF02F0EE0E086E2A
:1005000092EF02F00850D108D8A48BEF02F0EE0E63
:10051000086E92EF02F00850BA08D8A492EF02F0E9
:10052000DF0E086E0850120004EC02F0A8EC02F096
:10053000120006EC02F0A8EC02F0120008EC02F047
:10054000A8EC02F0120030EC02F0A8EC02F012006D
:10055000140E0A6E200E6AEC02F00A2EAAEF02F0C8
:1005600012000B6EF00BD8A4BCEF02F0200E04ECCE
:1005700000F0BFEF02F00B6E0B38C0EC02F00B5036
:100580000F0B0A6E0908D8A0CAEF02F00A50300F0C
:0C059000CCEF02F00A50370F04EF00F02F
:020000040030CA
:0100010038C6
:010002001FDE
:010003003CC0
:010005003DBD
:010006008178
:010008000FE8
:01000900C036
:01000A000FE6
:01000B00E014
:01000C000FE4
:01000D0040B2
:00000001FF
