:020000040000FA
:0400000019EF00F004
:020004000000FA
:040008000CEF00F009
:08001800006ED8CF01F0E0CF2B
:1000200002F0006ED8CF01F0E0CF02F0120011EF25
:1000300000F00F01386B396B3A6B0F01806A816AEF
:10004000826A0001896A8A6A8B6A926A936A946AF0
:10005000928073EC00F03F0E8B6E80B02BEF00F0BF
:10006000D9EC00F0060E8B6E80B032EF00F0D9ECC8
:1000700000F05B0E8B6E80B039EF00F0D9EC00F031
:100080004F0E8B6E80B040EF00F0D9EC00F0660EA2
:100090008B6E80B047EF00F0D9EC00F06D0E8B6EE8
:1000A00080B04EEF00F0D9EC00F07D0E8B6E80B08A
:1000B00055EF00F0D9EC00F0070E8B6E80B05CEFCE
:1000C00000F0D9EC00F07F0E8B6E80B063EF00F093
:1000D000D9EC00F0670E8B6E80B06AEF00F0D9ECBF
:1000E00000F02BEF00F0000ED56ED66AD76AF294BE
:1000F0001200C9EC00F0C9EC00F0C9EC00F0C9EC4A
:1001000000F0C9EC00F0C9EC00F0C9EC00F0C9EC5B
:1001100000F0C9EC00F01200046ED584D582D580C1
:10012000F40E056E240E066EBCEF00F0046ED5844E
:10013000D592D590C30E056E500E066EBCEF00F042
:10014000046ED594D592D5809C0E056E400E066E39
:10015000BCEF00F0046ED594D592D5800F0E056EDD
:10016000A00E066EBCEF00F0046ED594D592D5803B
:10017000010E056E900E066E051CD76E061CD66E1F
:10018000D58EF2A4C1EF00F0F294042EBCEF00F083
:1001900012000A0EAAEC00F01200050EAAEC00F004
:1001A0001200010EAAEC00F01200640EAAEC00F09E
:1001B0001200D5EC00F0D5EC00F0D5EC00F0D5EC59
:1001C00000F0C9EC00F0C9EC00F0C9EC00F0C9EC9B
:1001D00000F0C9EC00F01200010E8CEC00F01200EF
:020000040030CA
:0100010033CB
:010002001FDE
:010003003CC0
:010005003DBD
:010006008178
:010008000FE8
:01000900C036
:01000A000FE6
:01000B00E014
:01000C000FE4
:01000D0040B2
:00000001FF
