:020000040000FA
:0400000019EF00F004
:020004000000FA
:040008000CEF00F009
:08001800006ED8CF01F0E0CF2B
:1000200002F0006ED8CF01F0E0CF02F0120011EF25
:1000300000F0D38CD38AD3889B8C606A0F01386B15
:10004000396B3A6B0F01806A816A826A0001896AA2
:100050008A6A8B6A926A936A946AFF0E926E94849B
:1000600049914993270EBB6E0C0EBD6EBE6A070EFA
:10007000BA6E9E929494036A03C0BEFF03C08AFFC7
:1000800080A048EF00F080A254EF00F03CEF00F0B9
:10009000B0EC00F0032A03500008D8A43CEF00F0B5
:1000A000FF0E036E3CEF00F0B0EC00F003060350CF
:1000B000FF08D8A43CEF00F0000E036E3CEF00F008
:1000C000030ED56EF294FF0ED76EFA0ED66ED58E55
:1000D000E2EF00F0070ED56EF2940B0ED76EDB0E3A
:1000E000D66ED58EE2EF00F0070ED56EF294850E37
:1000F000D76EED0ED66ED58EE2EF00F0040ED56E03
:10010000F2943C0ED76EAF0ED66ED58EE2EF00F0B5
:10011000040ED56EF2949E0ED76E570ED66ED58E07
:10012000E2EF00F0040ED56EF294BF0ED76E8B0E88
:10013000D66ED58EE2EF00F0040ED56EF294E00E8E
:10014000D76EBF0ED66ED58EE2EF00F0040ED56EE0
:10015000F294DC0ED76ED70ED66ED58EE2EF00F09D
:10016000030ED56EF294D80ED76EF00ED66ED58EE5
:10017000E2EF00F0000ED56EF294630ED76E520ED1
:10018000D66ED58EE2EF00F0040ED56EF294FF0E1F
:10019000D76E050ED66ED58EE2EF00F0040ED56E4A
:1001A000F294FF0ED76E820ED66ED58EE2EF00F07F
:1001B000040ED56EF294FE0ED76E0D0ED66ED58E51
:1001C000E2EF00F0F2A4E2EF00F0F294D59E12000C
:020000040030CA
:0100010038C6
:010002001FDE
:010003003CC0
:010005003DBD
:010006008178
:010008000FE8
:01000900C036
:01000A000FE6
:01000B00E014
:01000C000FE4
:01000D0040B2
:00000001FF
