:020000040000FA
:0400000019EF00F004
:020004000000FA
:040008000CEF00F009
:08001800006ED8CF01F0E0CF2B
:1000200002F0006ED8CF01F0E0CF02F0120011EF25
:1000300000F00F01386B396B3A6B0F01806A816AEF
:10004000826A0001896A8A6A8B6A926A936A946AF0
:100050007EEC00F0320EC66E8B9EE0EC00F0040EDB
:1000600040EC00F0F7EC00F0000E4AEC00F0F7EC8A
:1000700000F0010E54EC00F0F7EC00F02FEF00F070
:10008000046E8B8E800E5EEC00F004505EEC00F08F
:100090008B9E1200046E8B8E820E5EEC00F004507C
:1000A0005EEC00F08B9E1200046E8B8E840E5EEC74
:1000B00000F004505EEC00F08B9E1200066E07907C
:1000C00006BE0780079206BC0782079406BA07841B
:1000D000079606B80786079806B60788079A06B4F3
:1000E000078A079C06B2078C079E06B0078E07504A
:1000F000C96E9EA679EF00F09E961200000ED56E96
:10010000D66AD76AF2941200D4EC00F0D4EC00F076
:10011000D4EC00F0D4EC00F0D4EC00F0D4EC00F01F
:10012000D4EC00F0D4EC00F0D4EC00F01200086E37
:10013000D584D582D580F40E096E240E0A6EC7EFE1
:1001400000F0086ED584D592D590C30E096E500E7E
:100150000A6EC7EF00F0086ED594D592D5809C0E3C
:10016000096E400E0A6EC7EF00F0086ED594D59266
:10017000D5800F0E096EA00E0A6EC7EF00F0086E54
:10018000D594D592D580010E096E900E0A6E091C89
:10019000D76E0A1CD66ED58EF2A4CCEF00F0F29486
:1001A000082EC7EF00F012000A0EB5EC00F01200A6
:1001B000050EB5EC00F01200010EB5EC00F01200D7
:1001C000640EB5EC00F01200E0EC00F0E0EC00F0A2
:1001D000E0EC00F0E0EC00F0D4EC00F0D4EC00F047
:1001E000D4EC00F0D4EC00F0D4EC00F01200010EDE
:0601F00097EC00F0120084
:020000040030CA
:0100010033CB
:010002001FDE
:010003003CC0
:010005003DBD
:010006008178
:010008000FE8
:01000900C036
:01000A000FE6
:01000B00E014
:01000C000FE4
:01000D0040B2
:00000001FF
