:020000040000FA
:0400000019EF00F004
:020004000000FA
:040008000CEF00F009
:08001800006ED8CF01F0E0CF2B
:1000200002F0006ED8CF01F0E0CF02F0120011EF25
:1000300000F00F01386B396B3A6B0F01806A816AEF
:10004000826A0001896A8A6A8B6A926A936A946AF0
:1000500047EC00F09E96320EC66E036A8B8E0350FC
:1000600037EC00F0A9EC00F0032A2FEF00F0046E4B
:100070008B9E110E41EC00F0045041EC00F08B8E91
:100080001200C96E9EA642EF00F09E961200000E6E
:10009000D56ED66AD76AF29412009DEC00F09DEC02
:1000A00000F09DEC00F09DEC00F09DEC00F09DEC6C
:1000B00000F09DEC00F09DEC00F09DEC00F01200D3
:1000C000056ED584D582D580F40E066E240E076E9B
:1000D00090EF00F0056ED584D592D590C30E066ED4
:1000E000500E076E90EF00F0056ED594D592D58036
:1000F0009C0E066E400E076E90EF00F0056ED594D4
:10010000D592D5800F0E066EA00E076E90EF00F010
:10011000056ED594D592D580010E066E900E076EB1
:10012000061CD76E071CD66ED58EF2A495EF00F094
:10013000F294052E90EF00F012000A0E7EEC00F013
:100140001200050E7EEC00F01200010E7EEC00F0B5
:100150001200640E7EEC00F01200A9EC00F0A9EC95
:1001600000F0A9EC00F0A9EC00F09DEC00F09DEC93
:1001700000F09DEC00F09DEC00F09DEC00F0120012
:08018000010E60EC00F012001A
:020000040030CA
:0100010033CB
:010002001FDE
:010003003CC0
:010005003DBD
:010006008178
:010008000FE8
:01000900C036
:01000A000FE6
:01000B00E014
:01000C000FE4
:01000D0040B2
:00000001FF
