:020000040000FA
:0400000019EF00F004
:020004000000FA
:040008000CEF00F009
:08001800006ED8CF01F0E0CF2B
:1000200002F0006ED8CF01F0E0CF02F0120011EF25
:1000300000F0D38CD38AD3889B8C606A0F01386B15
:10004000396B3A6B0F01806A816A826A0001896AA2
:100050008A6A8B6A926A936A946AFF0E926E80A093
:1000600037EC00F080A24AEC00F02FEF00F0010E18
:100070008A6E9BEC00F0040E8A6E9BEC00F0020E80
:100080008A6E9BEC00F0080E8A6E9BEC00F0000E6E
:100090008A6E12001200030ED56EF294FF0ED76E18
:1000A000FA0ED66ED58ECDEF00F0070ED56EF29417
:1000B0000B0ED76EDB0ED66ED58ECDEF00F0070E91
:1000C000D56EF294850ED76EED0ED66ED58ECDEF31
:1000D00000F0040ED56EF2943C0ED76EAF0ED66EC5
:1000E000D58ECDEF00F0040ED56EF2949E0ED76E35
:1000F000570ED66ED58ECDEF00F0040ED56EF2946D
:10010000BF0ED76E8B0ED66ED58ECDEF00F0040EDF
:10011000D56EF294E00ED76EBF0ED66ED58ECDEFB3
:1001200000F0040ED56EF294DC0ED76ED70ED66EAC
:10013000D58ECDEF00F0030ED56EF294D80ED76EAB
:10014000F00ED66ED58ECDEF00F0000ED56EF29487
:10015000630ED76E520ED66ED58ECDEF00F0040E24
:10016000D56EF294FF0ED76E050ED66ED58ECDEFFE
:1001700000F0040ED56EF294FF0ED76E820ED66E8E
:10018000D58ECDEF00F0040ED56EF294FE0ED76E34
:100190000D0ED66ED58ECDEF00F0F2A4CDEF00F0AF
:0601A000F294D59E12004E
:020000040030CA
:0100010038C6
:010002001FDE
:010003003CC0
:010005003DBD
:010006008178
:010008000FE8
:01000900C036
:01000A000FE6
:01000B00E014
:01000C000FE4
:01000D0040B2
:00000001FF
