:020000040000FA
:0400000019EF00F004
:020004000000FA
:040008000CEF00F009
:08001800006ED8CF01F0E0CF2B
:1000200002F0006ED8CF01F0E0CF02F0120011EF25
:1000300000F0D38CD38AD3889B8C606A0F01386B15
:10004000396B3A6B0F01806A816A826A0001896AA2
:100050008A6A8B6A926A936A946AFF0E926EB3EC14
:1000600001F0036A046A056AB2EC00F064EC00F087
:1000700085EC00F080A048EF00F080A24FEF00F088
:1000800080A456EF00F080A65DEF00F036EF00F0A0
:10009000F7EC00F0032AC5EC00F036EF00F0F7ECC7
:1000A00000F00306C5EC00F036EF00F0F7EC00F0CE
:1000B000042AC5EC00F036EF00F0F7EC00F004067F
:1000C000C5EC00F036EF00F0E8EC01F0560E4EEC17
:1000D00002F0410E4EEC02F0520E4EEC02F0310EE8
:1000E0004EEC02F03A0E4EEC02F0200E4EEC02F016
:1000F000035092EC01F00E504EEC02F00D504EEC1D
:1001000002F00C504EEC02F01200EAEC01F0560E38
:100110004EEC02F0410E4EEC02F0520E4EEC02F0AC
:10012000320E4EEC02F03A0E4EEC02F0200E4EEC87
:1001300002F0045092EC01F00E504EEC02F00D5023
:100140004EEC02F00C504EEC02F0120092EC01F07A
:100150000E504EEC02F00D504EEC02F00C504EECF6
:1001600002F01200000EAA6E000EA96EA69EA69CBA
:10017000A680A850036E000EAA6E010EA96EA69E60
:10018000A69CA680A850046E1200000EAA6E000E57
:10019000A96E0350A86ED6EC00F0000EAA6E010EF8
:1001A000A96E0450A86ED6EC00F01200A69EA69C84
:1001B000A684F29E550EA76EAA0EA76EA682A6B2C0
:1001C000FED7A6941200030ED56EF294FF0ED76EE2
:1001D000FA0ED66ED58E6FEF01F0070ED56EF29443
:1001E0000B0ED76EDB0ED66ED58E6FEF01F0070EBD
:1001F000D56EF294850ED76EED0ED66ED58E6FEF5E
:1002000001F0040ED56EF2943C0ED76EAF0ED66E92
:10021000D58E6FEF01F0040ED56EF2949E0ED76E60
:10022000570ED66ED58E6FEF01F0040ED56EF29498
:10023000BF0ED76E8B0ED66ED58E6FEF01F0040E0B
:10024000D56EF294E00ED76EBF0ED66ED58E6FEFE0
:1002500001F0040ED56EF294DC0ED76ED70ED66E7A
:10026000D58E6FEF01F0030ED56EF294D80ED76ED7
:10027000F00ED66ED58E6FEF01F0000ED56EF294B3
:10028000630ED76E520ED66ED58E6FEF01F0040E50
:10029000D56EF294FF0ED76E050ED66ED58E6FEF2B
:1002A00001F0040ED56EF294FF0ED76E820ED66E5C
:1002B000D58E6FEF01F0040ED56EF294FF0ED76E5F
:1002C000C20ED66ED58E6FEF01F0040ED56EF2948D
:1002D000FE0ED76E0D0ED66ED58E6FEF01F0F2A426
:1002E0006FEF01F0F294D59E12000F6E0C6A0D6A4A
:1002F0000E6A640E0F5CD8B080EF01F084EF01F05D
:100300000F6E0E2A79EF01F00A0E0F5CD8B08BEF5A
:1003100001F08FEF01F00F6E0D2A84EF01F00F5006
:100320000C6E12000F6E0C6A0D6A0E6A640E0F5C82
:10033000D8B09DEF01F0A1EF01F00F6E0E2A96EFFD
:1003400001F00A0E0F5CD8B0A8EF01F0ACEF01F09D
:100350000F6E0D2AA1EF01F00F500C6E300E0C261F
:100360000D260E2612008B968B9433EC01F0300E86
:10037000D6EC01F03DEC01F065EC01F0300ED6EC6E
:1003800001F05BEC01F0300ED6EC01F05BEC01F01B
:10039000200ED6EC01F05BEC01F048EC02F046ECEC
:1003A00002F044EC02F0E0EC01F01200F00B086EF9
:1003B0008B500F0B081208508B6E8B868B96120099
:1003C000060E67D0C80E65D0810E63D0C10E61D015
:1003D000800E5FD0C00E5DD0940E5BD0950E59D0CC
:1003E000960E57D0970E55D0980E53D0990E51D0E7
:1003F0009A0E4FD09B0E4DD09C0E4BD09D0E49D0E7
:100400009E0E47D09F0E45D0A00E43D0A10E41D0E6
:10041000A20E3FD0A30E3DD0A40E3BD0A50E39D0E6
:10042000A60E37D0A70E35D0D40E33D0D50E31D08E
:10043000D60E2FD0D70E2DD0D80E2BD0D90E29D036
:10044000DA0E27D0DB0E25D0DC0E23D0DD0E21D036
:10045000DE0E1FD0DF0E1DD0E00E1BD0E10E19D036
:10046000E20E17D0E30E15D0E40E13D0E50E11D036
:10047000E60E0FD0E70E0DD080090BD0C00909D0D1
:10048000080E07D00E0E05D00C0E03D0010E01D0C1
:10049000280E8B9406D0FDD70F0EFBD78B845DEC16
:1004A00002F0096ED6EC01F00938D6EC01F08BA40D
:1004B00065EC01F065EC01F01200086EF108D8A4BB
:1004C00066EF02F0EE0E086E76EF02F00850D108EB
:1004D000D8A46FEF02F0EE0E086E76EF02F008502F
:1004E000BA08D8A476EF02F0DF0E086E08501200AA
:1004F000E8EC01F08CEC02F01200EAEC01F08CEC7C
:1005000002F01200ECEC01F08CEC02F0120014ECA2
:1005100002F08CEC02F01200140E0A6E200E4EEC6B
:1005200002F00A2E8EEF02F012000B6EF00BD8A430
:10053000A0EF02F0200E04EC00F0A3EF02F00B6E2F
:100540000B38A4EC02F00B500F0B0A6E0908D8A070
:10055000AEEF02F00A50300FB0EF02F00A50370F42
:0405600004EF00F0B4
:020000040030CA
:0100010038C6
:010002001FDE
:010003003CC0
:010005003DBD
:010006008178
:010008000FE8
:01000900C036
:01000A000FE6
:01000B00E014
:01000C000FE4
:01000D0040B2
:00000001FF
