:020000040000FA
:0400000019EF00F004
:020004000000FA
:040008000CEF00F009
:08001800006ED8CF01F0E0CF2B
:1000200002F0006ED8CF01F0E0CF02F0120011EF25
:1000300000F0D38CD38AD3889B8C606A0F01386B15
:10004000396B3A6B0F01806A816A826A0001896AA2
:100050008A6A8B6A926A936A946AFF0E926E80A093
:1000600038EF00F080A242EF00F08B8C2FEF00F011
:100070008B9C8B988B8AC4EC00F08B9AC4EC00F0BC
:100080002FEF00F08B9C8B888B8AC4EC00F08B9A4E
:10009000C4EC00F02FEF00F0030ED56EF294FF0ECB
:1000A000D76EFA0ED66ED58ECEEF00F0070ED56E57
:1000B000F2940B0ED76EDB0ED66ED58ECEEF00F01F
:1000C000070ED56EF294850ED76EED0ED66ED58ED8
:1000D000CEEF00F0040ED56EF2943C0ED76EAF0E4C
:1000E000D66ED58ECEEF00F0040ED56EF2949E0E35
:1000F000D76E570ED66ED58ECEEF00F0040ED56EAD
:10010000F294BF0ED76E8B0ED66ED58ECEEF00F06A
:10011000040ED56EF294E00ED76EBF0ED66ED58E5D
:10012000CEEF00F0040ED56EF294DC0ED76ED70E33
:10013000D66ED58ECEEF00F0030ED56EF294D80EAB
:10014000D76EF00ED66ED58ECEEF00F0000ED56EC7
:10015000F294630ED76E520ED66ED58ECEEF00F0AF
:10016000040ED56EF294FF0ED76E050ED66ED58EA8
:10017000CEEF00F0040ED56EF294FF0ED76E820E15
:10018000D66ED58ECEEF00F0040ED56EF294FE0E34
:10019000D76E0D0ED66ED58ECEEF00F0F2A4CEEF58
:0801A00000F0F294D59E12005C
:020000040030CA
:0100010038C6
:010002001FDE
:010003003CC0
:010005003DBD
:010006008178
:010008000FE8
:01000900C036
:01000A000FE6
:01000B00E014
:01000C000FE4
:01000D0040B2
:00000001FF
