:020000040000FA
:0400000019EF00F004
:020004000000FA
:040008000CEF00F009
:08001800006ED8CF01F0E0CF2B
:1000200002F0006ED8CF01F0E0CF02F0120011EF25
:1000300000F00F01386B396B3A6B0F01806A816AEF
:10004000826A0001896A8A6A8B6A926A936A946AF0
:1000500081EC00F0036A046A046E010E036E8B9259
:100060004F0E42EC00F05B0E42EC00F0060E42EC4C
:1000700000F03F0E42EC00F0032E30EF00F00300E2
:1000800030EF00F0046E8B948B9004BE8B808B82DB
:100090007EEC00F08B928B9004BC8B808B827EEC8C
:1000A00000F08B928B9004BA8B808B827EEC00F0F8
:1000B0008B928B9004B88B808B827EEC00F08B92BD
:1000C0008B9004B68B808B827EEC00F08B928B90B1
:1000D00004B48B808B827EEC00F08B928B9004B208
:1000E0008B808B827EEC00F08B928B9004B08B80A7
:1000F0008B827EEC00F08B928B841200DFEC00F0A0
:100100001200000ED56ED66AD76AF2941200D7ECB0
:1001100000F0D7EC00F0D7EC00F0D7EC00F0D7EC13
:1001200000F0D7EC00F0D7EC00F0D7EC00F0D7EC03
:1001300000F01200056ED584D582D580F40E066ECF
:10014000240E076ECAEF00F0056ED584D592D590C7
:10015000C30E066E500E076ECAEF00F0056ED59402
:10016000D592D5809C0E066E400E076ECAEF00F049
:10017000056ED594D592D5800F0E066EA00E076E33
:10018000CAEF00F0056ED594D592D580010E066EAB
:10019000900E076E061CD76E071CD66ED58EF2A485
:1001A000CFEF00F0F294052ECAEF00F012000A0E15
:1001B000B8EC00F01200050EB8EC00F01200010ED1
:1001C000B8EC00F01200640EB8EC00F01200E3ECA2
:1001D00000F0E3EC00F0E3EC00F0E3EC00F0D7EC2F
:1001E00000F0D7EC00F0D7EC00F0D7EC00F0D7EC43
:0C01F00000F01200010E9AEC00F012006A
:020000040030CA
:0100010033CB
:010002001FDE
:010003003CC0
:010005003DBD
:010006008178
:010008000FE8
:01000900C036
:01000A000FE6
:01000B00E014
:01000C000FE4
:01000D0040B2
:00000001FF
