:020000040000FA
:0400000019EF00F004
:020004000000FA
:040008000CEF00F009
:08001800006ED8CF01F0E0CF2B
:1000200002F0006ED8CF01F0E0CF02F0120011EF25
:1000300000F00F01386B396B3A6B38810F01806A21
:10004000816A826A0001896A8A6A8B6A926A936A03
:10005000946A92803E0EC06E0F0EC16E69EC00F085
:1000600042EC00F0043604504CEC00F007C08AFF6C
:1000700008C00AF009380A260AC08BFFC7EC00F056
:1000800030EF00F0030EC26EC2B244EF00F0C4CFF6
:1000900004F0C3CF05F01200066E076A086A096A09
:1000A000640E065CD8B057EF00F05BEF00F0066E10
:1000B000092A50EF00F00A0E065CD8B062EF00F09B
:1000C00066EF00F0066E082A5BEF00F00650076E40
:1000D0001200000ED56ED66AD76AF2941200BFECF9
:1000E00000F0BFEC00F0BFEC00F0BFEC00F0BFECA4
:1000F00000F0BFEC00F0BFEC00F0BFEC00F0BFEC94
:1001000000F012000B6ED584D582D580F40E0C6EF3
:10011000240E0D6EB2EF00F00B6ED584D592D59003
:10012000C30E0C6E500E0D6EB2EF00F00B6ED59438
:10013000D592D5809C0E0C6E400E0D6EB2EF00F085
:100140000B6ED594D592D5800F0E0C6EA00E0D6E51
:10015000B2EF00F00B6ED594D592D580010E0C6EE7
:10016000900E0D6E0C1CD76E0D1CD66ED58EF2A4A3
:10017000B7EF00F0F2940B2EB2EF00F012000A0E6F
:10018000A0EC00F01200050EA0EC00F01200010E31
:10019000A0EC00F01200640EA0EC00F01200CBEC1A
:1001A00000F0CBEC00F0CBEC00F0CBEC00F0BFECBF
:1001B00000F0BFEC00F0BFEC00F0BFEC00F0BFECD3
:0C01C00000F01200010E82EC00F01200B2
:020000040030CA
:0100010033CB
:010002001FDE
:010003003CC0
:010005003DBD
:010006008178
:010008000FE8
:01000900C036
:01000A000FE6
:01000B00E014
:01000C000FE4
:01000D0040B2
:00000001FF
